0000000000000911999-01-20ESTADO_OK      CONSORCIO DEL PARQUE          112211212133311AV DEL PARQUE 9999            00000001
0000000000000921999-01-20ESTADO_QUIEBRA CONSORCIO DEL PILAR           112223319933311AV CABILDO  3429              00000002
0000000000000931999-01-20ESTADO_REGULAR CONSORCIO VAZQUEZ             112211212133311AV BELGRANO 9119              00000003
0000000000000941999-01-20ESTADO_OK      CONSORCIO ROJAS               011314444444441AV AVELLANEDA 2000            00000004