00000001SUPERI 3747                   111231231231211AAAALIMPIEZA       19890101   
00000002ALVAREZ 1234                  114545454545454BBBBGASISTA        19900203   
00000003AV FEDERICO LACROZE 123       119898989898989CCCCPLOMERIA       20000130   
00000004AV PASEO COLON 750            119894489898989DDDDDESTAPACIONES  20100520   